{
  "_format": "hh-sol-artifact-1",
  "contractName": "MyEpicGame",
  "sourceName": "contracts/MyEpicGame.sol",
  "abi": [
    {
      "inputs": [
        {
          "internalType": "string[]",
          "name": "characterNames",
          "type": "string[]"
        },
        {
          "internalType": "string[]",
          "name": "characterImageURIs",
          "type": "string[]"
        },
        {
          "internalType": "uint256[]",
          "name": "characterHp",
          "type": "uint256[]"
        },
        {
          "internalType": "uint256[]",
          "name": "characterAttackDmg",
          "type": "uint256[]"
        },
        {
          "internalType": "string",
          "name": "bossName",
          "type": "string"
        },
        {
          "internalType": "string",
          "name": "bossImageURI",
          "type": "string"
        },
        {
          "internalType": "uint256",
          "name": "bossHp",
          "type": "uint256"
        },
        {
          "internalType": "uint256",
          "name": "bossAttackDamage",
          "type": "uint256"
        }
      ],
      "stateMutability": "nonpayable",
      "type": "constructor"
    },
    {
      "anonymous": false,
      "inputs": [
        {
          "indexed": true,
          "internalType": "address",
          "name": "owner",
          "type": "address"
        },
        {
          "indexed": true,
          "internalType": "address",
          "name": "approved",
          "type": "address"
        },
        {
          "indexed": true,
          "internalType": "uint256",
          "name": "tokenId",
          "type": "uint256"
        }
      ],
      "name": "Approval",
      "type": "event"
    },
    {
      "anonymous": false,
      "inputs": [
        {
          "indexed": true,
          "internalType": "address",
          "name": "owner",
          "type": "address"
        },
        {
          "indexed": true,
          "internalType": "address",
          "name": "operator",
          "type": "address"
        },
        {
          "indexed": false,
          "internalType": "bool",
          "name": "approved",
          "type": "bool"
        }
      ],
      "name": "ApprovalForAll",
      "type": "event"
    },
    {
      "anonymous": false,
      "inputs": [
        {
          "indexed": false,
          "internalType": "address",
          "name": "sender",
          "type": "address"
        },
        {
          "indexed": false,
          "internalType": "uint256",
          "name": "newBossHp",
          "type": "uint256"
        },
        {
          "indexed": false,
          "internalType": "uint256",
          "name": "newPlayerHp",
          "type": "uint256"
        }
      ],
      "name": "AttackComplete",
      "type": "event"
    },
    {
      "anonymous": false,
      "inputs": [
        {
          "indexed": false,
          "internalType": "address",
          "name": "sender",
          "type": "address"
        },
        {
          "indexed": false,
          "internalType": "uint256",
          "name": "tokenId",
          "type": "uint256"
        },
        {
          "indexed": false,
          "internalType": "uint256",
          "name": "characterIndex",
          "type": "uint256"
        }
      ],
      "name": "CharacterNFTMinted",
      "type": "event"
    },
    {
      "anonymous": false,
      "inputs": [
        {
          "indexed": true,
          "internalType": "address",
          "name": "from",
          "type": "address"
        },
        {
          "indexed": true,
          "internalType": "address",
          "name": "to",
          "type": "address"
        },
        {
          "indexed": true,
          "internalType": "uint256",
          "name": "tokenId",
          "type": "uint256"
        }
      ],
      "name": "Transfer",
      "type": "event"
    },
    {
      "inputs": [
        {
          "internalType": "address",
          "name": "to",
          "type": "address"
        },
        {
          "internalType": "uint256",
          "name": "tokenId",
          "type": "uint256"
        }
      ],
      "name": "approve",
      "outputs": [],
      "stateMutability": "nonpayable",
      "type": "function"
    },
    {
      "inputs": [],
      "name": "attackBoss",
      "outputs": [],
      "stateMutability": "nonpayable",
      "type": "function"
    },
    {
      "inputs": [
        {
          "internalType": "address",
          "name": "owner",
          "type": "address"
        }
      ],
      "name": "balanceOf",
      "outputs": [
        {
          "internalType": "uint256",
          "name": "",
          "type": "uint256"
        }
      ],
      "stateMutability": "view",
      "type": "function"
    },
    {
      "inputs": [],
      "name": "bigBoss",
      "outputs": [
        {
          "internalType": "string",
          "name": "name",
          "type": "string"
        },
        {
          "internalType": "string",
          "name": "imageURI",
          "type": "string"
        },
        {
          "internalType": "uint256",
          "name": "hp",
          "type": "uint256"
        },
        {
          "internalType": "uint256",
          "name": "maxHp",
          "type": "uint256"
        },
        {
          "internalType": "uint256",
          "name": "attackDamage",
          "type": "uint256"
        }
      ],
      "stateMutability": "view",
      "type": "function"
    },
    {
      "inputs": [],
      "name": "checkIfUserHasNFT",
      "outputs": [
        {
          "components": [
            {
              "internalType": "uint256",
              "name": "characterIndex",
              "type": "uint256"
            },
            {
              "internalType": "string",
              "name": "name",
              "type": "string"
            },
            {
              "internalType": "string",
              "name": "imageURI",
              "type": "string"
            },
            {
              "internalType": "uint256",
              "name": "hp",
              "type": "uint256"
            },
            {
              "internalType": "uint256",
              "name": "maxHp",
              "type": "uint256"
            },
            {
              "internalType": "uint256",
              "name": "attackDamage",
              "type": "uint256"
            }
          ],
          "internalType": "struct MyEpicGame.CharacterAttributes",
          "name": "",
          "type": "tuple"
        }
      ],
      "stateMutability": "view",
      "type": "function"
    },
    {
      "inputs": [],
      "name": "getAllDefaultCharacters",
      "outputs": [
        {
          "components": [
            {
              "internalType": "uint256",
              "name": "characterIndex",
              "type": "uint256"
            },
            {
              "internalType": "string",
              "name": "name",
              "type": "string"
            },
            {
              "internalType": "string",
              "name": "imageURI",
              "type": "string"
            },
            {
              "internalType": "uint256",
              "name": "hp",
              "type": "uint256"
            },
            {
              "internalType": "uint256",
              "name": "maxHp",
              "type": "uint256"
            },
            {
              "internalType": "uint256",
              "name": "attackDamage",
              "type": "uint256"
            }
          ],
          "internalType": "struct MyEpicGame.CharacterAttributes[]",
          "name": "",
          "type": "tuple[]"
        }
      ],
      "stateMutability": "view",
      "type": "function"
    },
    {
      "inputs": [],
      "name": "getAllPlayers",
      "outputs": [
        {
          "components": [
            {
              "internalType": "uint256",
              "name": "characterIndex",
              "type": "uint256"
            },
            {
              "internalType": "string",
              "name": "name",
              "type": "string"
            },
            {
              "internalType": "string",
              "name": "imageURI",
              "type": "string"
            },
            {
              "internalType": "uint256",
              "name": "hp",
              "type": "uint256"
            },
            {
              "internalType": "uint256",
              "name": "maxHp",
              "type": "uint256"
            },
            {
              "internalType": "uint256",
              "name": "attackDamage",
              "type": "uint256"
            }
          ],
          "internalType": "struct MyEpicGame.CharacterAttributes[]",
          "name": "",
          "type": "tuple[]"
        }
      ],
      "stateMutability": "view",
      "type": "function"
    },
    {
      "inputs": [
        {
          "internalType": "uint256",
          "name": "tokenId",
          "type": "uint256"
        }
      ],
      "name": "getApproved",
      "outputs": [
        {
          "internalType": "address",
          "name": "",
          "type": "address"
        }
      ],
      "stateMutability": "view",
      "type": "function"
    },
    {
      "inputs": [],
      "name": "getBigBoss",
      "outputs": [
        {
          "components": [
            {
              "internalType": "string",
              "name": "name",
              "type": "string"
            },
            {
              "internalType": "string",
              "name": "imageURI",
              "type": "string"
            },
            {
              "internalType": "uint256",
              "name": "hp",
              "type": "uint256"
            },
            {
              "internalType": "uint256",
              "name": "maxHp",
              "type": "uint256"
            },
            {
              "internalType": "uint256",
              "name": "attackDamage",
              "type": "uint256"
            }
          ],
          "internalType": "struct MyEpicGame.BigBoss",
          "name": "",
          "type": "tuple"
        }
      ],
      "stateMutability": "view",
      "type": "function"
    },
    {
      "inputs": [
        {
          "internalType": "address",
          "name": "owner",
          "type": "address"
        },
        {
          "internalType": "address",
          "name": "operator",
          "type": "address"
        }
      ],
      "name": "isApprovedForAll",
      "outputs": [
        {
          "internalType": "bool",
          "name": "",
          "type": "bool"
        }
      ],
      "stateMutability": "view",
      "type": "function"
    },
    {
      "inputs": [
        {
          "internalType": "uint256",
          "name": "_characterIndex",
          "type": "uint256"
        }
      ],
      "name": "mintCharacterNFT",
      "outputs": [],
      "stateMutability": "nonpayable",
      "type": "function"
    },
    {
      "inputs": [],
      "name": "name",
      "outputs": [
        {
          "internalType": "string",
          "name": "",
          "type": "string"
        }
      ],
      "stateMutability": "view",
      "type": "function"
    },
    {
      "inputs": [
        {
          "internalType": "uint256",
          "name": "",
          "type": "uint256"
        }
      ],
      "name": "nftHolderAttributes",
      "outputs": [
        {
          "internalType": "uint256",
          "name": "characterIndex",
          "type": "uint256"
        },
        {
          "internalType": "string",
          "name": "name",
          "type": "string"
        },
        {
          "internalType": "string",
          "name": "imageURI",
          "type": "string"
        },
        {
          "internalType": "uint256",
          "name": "hp",
          "type": "uint256"
        },
        {
          "internalType": "uint256",
          "name": "maxHp",
          "type": "uint256"
        },
        {
          "internalType": "uint256",
          "name": "attackDamage",
          "type": "uint256"
        }
      ],
      "stateMutability": "view",
      "type": "function"
    },
    {
      "inputs": [
        {
          "internalType": "address",
          "name": "",
          "type": "address"
        }
      ],
      "name": "nftHolders",
      "outputs": [
        {
          "internalType": "uint256",
          "name": "",
          "type": "uint256"
        }
      ],
      "stateMutability": "view",
      "type": "function"
    },
    {
      "inputs": [
        {
          "internalType": "uint256",
          "name": "tokenId",
          "type": "uint256"
        }
      ],
      "name": "ownerOf",
      "outputs": [
        {
          "internalType": "address",
          "name": "",
          "type": "address"
        }
      ],
      "stateMutability": "view",
      "type": "function"
    },
    {
      "inputs": [
        {
          "internalType": "address",
          "name": "from",
          "type": "address"
        },
        {
          "internalType": "address",
          "name": "to",
          "type": "address"
        },
        {
          "internalType": "uint256",
          "name": "tokenId",
          "type": "uint256"
        }
      ],
      "name": "safeTransferFrom",
      "outputs": [],
      "stateMutability": "nonpayable",
      "type": "function"
    },
    {
      "inputs": [
        {
          "internalType": "address",
          "name": "from",
          "type": "address"
        },
        {
          "internalType": "address",
          "name": "to",
          "type": "address"
        },
        {
          "internalType": "uint256",
          "name": "tokenId",
          "type": "uint256"
        },
        {
          "internalType": "bytes",
          "name": "_data",
          "type": "bytes"
        }
      ],
      "name": "safeTransferFrom",
      "outputs": [],
      "stateMutability": "nonpayable",
      "type": "function"
    },
    {
      "inputs": [
        {
          "internalType": "address",
          "name": "operator",
          "type": "address"
        },
        {
          "internalType": "bool",
          "name": "approved",
          "type": "bool"
        }
      ],
      "name": "setApprovalForAll",
      "outputs": [],
      "stateMutability": "nonpayable",
      "type": "function"
    },
    {
      "inputs": [
        {
          "internalType": "bytes4",
          "name": "interfaceId",
          "type": "bytes4"
        }
      ],
      "name": "supportsInterface",
      "outputs": [
        {
          "internalType": "bool",
          "name": "",
          "type": "bool"
        }
      ],
      "stateMutability": "view",
      "type": "function"
    },
    {
      "inputs": [],
      "name": "symbol",
      "outputs": [
        {
          "internalType": "string",
          "name": "",
          "type": "string"
        }
      ],
      "stateMutability": "view",
      "type": "function"
    },
    {
      "inputs": [
        {
          "internalType": "uint256",
          "name": "_tokenId",
          "type": "uint256"
        }
      ],
      "name": "tokenURI",
      "outputs": [
        {
          "internalType": "string",
          "name": "",
          "type": "string"
        }
      ],
      "stateMutability": "view",
      "type": "function"
    },
    {
      "inputs": [
        {
          "internalType": "address",
          "name": "from",
          "type": "address"
        },
        {
          "internalType": "address",
          "name": "to",
          "type": "address"
        },
        {
          "internalType": "uint256",
          "name": "tokenId",
          "type": "uint256"
        }
      ],
      "name": "transferFrom",
      "outputs": [],
      "stateMutability": "nonpayable",
      "type": "function"
    }
  ],
  "bytecode": "0x60806040523480156200001157600080fd5b5060405162005b9438038062005b948339818101604052810190620000379190620008f9565b6040518060400160405280600681526020017f4865726f657300000000000000000000000000000000000000000000000000008152506040518060400160405280600481526020017f4845524f000000000000000000000000000000000000000000000000000000008152508160009080519060200190620000bb9291906200068c565b508060019080519060200190620000d49291906200068c565b5050506040518060a0016040528085815260200184815260200183815260200183815260200182815250600960008201518160000190805190602001906200011e9291906200068c565b5060208201518160010190805190602001906200013d9291906200068c565b5060408201518160020155606082015181600301556080820151816004015590505060005b88518110156200057b5760076040518060c001604052808381526020018b8481518110620001b9577f4e487b7100000000000000000000000000000000000000000000000000000000600052603260045260246000fd5b602002602001015181526020018a848151811062000200577f4e487b7100000000000000000000000000000000000000000000000000000000600052603260045260246000fd5b6020026020010151815260200189848151811062000247577f4e487b7100000000000000000000000000000000000000000000000000000000600052603260045260246000fd5b602002602001015181526020018984815181106200028e577f4e487b7100000000000000000000000000000000000000000000000000000000600052603260045260246000fd5b60200260200101518152602001888481518110620002d5577f4e487b7100000000000000000000000000000000000000000000000000000000600052603260045260246000fd5b60200260200101518152509080600181540180825580915050600190039060005260206000209060060201600090919091909150600082015181600001556020820151816001019080519060200190620003319291906200068c565b506040820151816002019080519060200190620003509291906200068c565b50606082015181600301556080820151816004015560a082015181600501555050600060078281548110620003ae577f4e487b7100000000000000000000000000000000000000000000000000000000600052603260045260246000fd5b90600052602060002090600602016040518060c001604052908160008201548152602001600182018054620003e39062000c7c565b80601f0160208091040260200160405190810160405280929190818152602001828054620004119062000c7c565b8015620004625780601f10620004365761010080835404028352916020019162000462565b820191906000526020600020905b8154815290600101906020018083116200044457829003601f168201915b505050505081526020016002820180546200047d9062000c7c565b80601f0160208091040260200160405190810160405280929190818152602001828054620004ab9062000c7c565b8015620004fc5780601f10620004d057610100808354040283529160200191620004fc565b820191906000526020600020905b815481529060010190602001808311620004de57829003601f168201915b50505050508152602001600382015481526020016004820154815260200160058201548152505090506200056360405180606001604052806025815260200162005b6f60259139826020015183606001518460400151620005a160201b6200206a1760201c565b5060018162000573919062000bdf565b905062000162565b506200059360066200064d60201b6200210c1760201c565b505050505050505062000da0565b6200064784848484604051602401620005be949392919062000aa4565b6040516020818303038152906040527f8d142cdd000000000000000000000000000000000000000000000000000000007bffffffffffffffffffffffffffffffffffffffffffffffffffffffff19166020820180517bffffffffffffffffffffffffffffffffffffffffffffffffffffffff83818316178352505050506200066360201b60201c565b50505050565b6001816000016000828254019250508190555050565b60008151905060006a636f6e736f6c652e6c6f679050602083016000808483855afa5050505050565b8280546200069a9062000c7c565b90600052602060002090601f016020900481019282620006be57600085556200070a565b82601f10620006d957805160ff19168380011785556200070a565b828001600101855582156200070a579182015b8281111562000709578251825591602001919060010190620006ec565b5b5090506200071991906200071d565b5090565b5b80821115620007385760008160009055506001016200071e565b5090565b6000620007536200074d8462000b2f565b62000b06565b9050808382526020820190508260005b858110156200079757815185016200077c8882620008b5565b84526020840193506020830192505060018101905062000763565b5050509392505050565b6000620007b8620007b28462000b5e565b62000b06565b90508083825260208201905082856020860282011115620007d857600080fd5b60005b858110156200080c5781620007f18882620008e2565b845260208401935060208301925050600181019050620007db565b5050509392505050565b60006200082d620008278462000b8d565b62000b06565b9050828152602081018484840111156200084657600080fd5b6200085384828562000c46565b509392505050565b600082601f8301126200086d57600080fd5b81516200087f8482602086016200073c565b91505092915050565b600082601f8301126200089a57600080fd5b8151620008ac848260208601620007a1565b91505092915050565b600082601f830112620008c757600080fd5b8151620008d984826020860162000816565b91505092915050565b600081519050620008f38162000d86565b92915050565b600080600080600080600080610100898b0312156200091757600080fd5b600089015167ffffffffffffffff8111156200093257600080fd5b620009408b828c016200085b565b985050602089015167ffffffffffffffff8111156200095e57600080fd5b6200096c8b828c016200085b565b975050604089015167ffffffffffffffff8111156200098a57600080fd5b620009988b828c0162000888565b965050606089015167ffffffffffffffff811115620009b657600080fd5b620009c48b828c0162000888565b955050608089015167ffffffffffffffff811115620009e257600080fd5b620009f08b828c01620008b5565b94505060a089015167ffffffffffffffff81111562000a0e57600080fd5b62000a1c8b828c01620008b5565b93505060c062000a2f8b828c01620008e2565b92505060e062000a428b828c01620008e2565b9150509295985092959890939650565b600062000a5f8262000bc3565b62000a6b818562000bce565b935062000a7d81856020860162000c46565b62000a888162000d75565b840191505092915050565b62000a9e8162000c3c565b82525050565b6000608082019050818103600083015262000ac0818762000a52565b9050818103602083015262000ad6818662000a52565b905062000ae7604083018562000a93565b818103606083015262000afb818462000a52565b905095945050505050565b600062000b1262000b25565b905062000b20828262000cb2565b919050565b6000604051905090565b600067ffffffffffffffff82111562000b4d5762000b4c62000d46565b5b602082029050602081019050919050565b600067ffffffffffffffff82111562000b7c5762000b7b62000d46565b5b602082029050602081019050919050565b600067ffffffffffffffff82111562000bab5762000baa62000d46565b5b62000bb68262000d75565b9050602081019050919050565b600081519050919050565b600082825260208201905092915050565b600062000bec8262000c3c565b915062000bf98362000c3c565b9250827fffffffffffffffffffffffffffffffffffffffffffffffffffffffffffffffff0382111562000c315762000c3062000ce8565b5b828201905092915050565b6000819050919050565b60005b8381101562000c6657808201518184015260208101905062000c49565b8381111562000c76576000848401525b50505050565b6000600282049050600182168062000c9557607f821691505b6020821081141562000cac5762000cab62000d17565b5b50919050565b62000cbd8262000d75565b810181811067ffffffffffffffff8211171562000cdf5762000cde62000d46565b5b80604052505050565b7f4e487b7100000000000000000000000000000000000000000000000000000000600052601160045260246000fd5b7f4e487b7100000000000000000000000000000000000000000000000000000000600052602260045260246000fd5b7f4e487b7100000000000000000000000000000000000000000000000000000000600052604160045260246000fd5b6000601f19601f8301169050919050565b62000d918162000c3c565b811462000d9d57600080fd5b50565b614dbf8062000db06000396000f3fe608060405234801561001057600080fd5b50600436106101425760003560e01c806398da4c95116100b8578063c87b56dd1161007c578063c87b56dd14610392578063c8cf27f4146103c2578063d4f24c5b146103e0578063e985e9c5146103ea578063efa1c4821461041a578063f8b81ef71461043857610142565b806398da4c95146102e5578063a22cb4651461031a578063a9c3267914610336578063b88d4fde14610358578063b953084e1461037457610142565b806323b872dd1161010a57806323b872dd146101ff57806342842e0e1461021b5780636352211e1461023757806370a08231146102675780637df124a11461029757806395d89b41146102c757610142565b806301ffc9a7146101475780630665f9611461017757806306fdde0314610195578063081812fc146101b3578063095ea7b3146101e3575b600080fd5b610161600480360381019061015c91906134dd565b610454565b60405161016e9190613d42565b60405180910390f35b61017f610536565b60405161018c91906140db565b60405180910390f35b61019d610692565b6040516101aa9190613d5d565b60405180910390f35b6101cd60048036038101906101c8919061352f565b610724565b6040516101da9190613c82565b60405180910390f35b6101fd60048036038101906101f891906134a1565b6107a9565b005b6102196004803603810190610214919061339b565b6108c1565b005b6102356004803603810190610230919061339b565b610921565b005b610251600480360381019061024c919061352f565b610941565b60405161025e9190613c82565b60405180910390f35b610281600480360381019061027c9190613336565b6109f3565b60405161028e919061411f565b60405180910390f35b6102b160048036038101906102ac9190613336565b610aab565b6040516102be919061411f565b60405180910390f35b6102cf610ac3565b6040516102dc9190613d5d565b60405180910390f35b6102ff60048036038101906102fa919061352f565b610b55565b6040516103119695949392919061413a565b60405180910390f35b610334600480360381019061032f9190613465565b610ca1565b005b61033e610cb7565b60405161034f959493929190613e2c565b60405180910390f35b610372600480360381019061036d91906133ea565b610deb565b005b61037c610e4d565b6040516103899190613d20565b60405180910390f35b6103ac60048036038101906103a7919061352f565b610ff8565b6040516103b99190613d5d565b60405180910390f35b6103ca611213565b6040516103d791906140fd565b60405180910390f35b6103e86113eb565b005b61040460048036038101906103ff919061335f565b61195a565b6040516104119190613d42565b60405180910390f35b6104226119ee565b60405161042f9190613d20565b60405180910390f35b610452600480360381019061044d919061352f565b611c76565b005b60007f80ac58cd000000000000000000000000000000000000000000000000000000007bffffffffffffffffffffffffffffffffffffffffffffffffffffffff1916827bffffffffffffffffffffffffffffffffffffffffffffffffffffffff1916148061051f57507f5b5e139f000000000000000000000000000000000000000000000000000000007bffffffffffffffffffffffffffffffffffffffffffffffffffffffff1916827bffffffffffffffffffffffffffffffffffffffffffffffffffffffff1916145b8061052f575061052e82612122565b5b9050919050565b61053e61315d565b60096040518060a001604052908160008201805461055b90614457565b80601f016020809104026020016040519081016040528092919081815260200182805461058790614457565b80156105d45780601f106105a9576101008083540402835291602001916105d4565b820191906000526020600020905b8154815290600101906020018083116105b757829003601f168201915b505050505081526020016001820180546105ed90614457565b80601f016020809104026020016040519081016040528092919081815260200182805461061990614457565b80156106665780601f1061063b57610100808354040283529160200191610666565b820191906000526020600020905b81548152906001019060200180831161064957829003601f168201915b505050505081526020016002820154815260200160038201548152602001600482015481525050905090565b6060600080546106a190614457565b80601f01602080910402602001604051908101604052809291908181526020018280546106cd90614457565b801561071a5780601f106106ef5761010080835404028352916020019161071a565b820191906000526020600020905b8154815290600101906020018083116106fd57829003601f168201915b5050505050905090565b600061072f8261218c565b61076e576040517f08c379a00000000000000000000000000000000000000000000000000000000081526004016107659061407b565b60405180910390fd5b6004600083815260200190815260200160002060009054906101000a900473ffffffffffffffffffffffffffffffffffffffff169050919050565b60006107b482610941565b90508073ffffffffffffffffffffffffffffffffffffffff168373ffffffffffffffffffffffffffffffffffffffff161415610825576040517f08c379a000000000000000000000000000000000000000000000000000000000815260040161081c9061409b565b60405180910390fd5b8073ffffffffffffffffffffffffffffffffffffffff166108446121f8565b73ffffffffffffffffffffffffffffffffffffffff16148061087357506108728161086d6121f8565b61195a565b5b6108b2576040517f08c379a00000000000000000000000000000000000000000000000000000000081526004016108a990613fdb565b60405180910390fd5b6108bc8383612200565b505050565b6108d26108cc6121f8565b826122b9565b610911576040517f08c379a0000000000000000000000000000000000000000000000000000000008152600401610908906140bb565b60405180910390fd5b61091c838383612397565b505050565b61093c83838360405180602001604052806000815250610deb565b505050565b6000806002600084815260200190815260200160002060009054906101000a900473ffffffffffffffffffffffffffffffffffffffff169050600073ffffffffffffffffffffffffffffffffffffffff168173ffffffffffffffffffffffffffffffffffffffff1614156109ea576040517f08c379a00000000000000000000000000000000000000000000000000000000081526004016109e19061401b565b60405180910390fd5b80915050919050565b60008073ffffffffffffffffffffffffffffffffffffffff168273ffffffffffffffffffffffffffffffffffffffff161415610a64576040517f08c379a0000000000000000000000000000000000000000000000000000000008152600401610a5b90613ffb565b60405180910390fd5b600360008373ffffffffffffffffffffffffffffffffffffffff1673ffffffffffffffffffffffffffffffffffffffff168152602001908152602001600020549050919050565b600e6020528060005260406000206000915090505481565b606060018054610ad290614457565b80601f0160208091040260200160405190810160405280929190818152602001828054610afe90614457565b8015610b4b5780601f10610b2057610100808354040283529160200191610b4b565b820191906000526020600020905b815481529060010190602001808311610b2e57829003601f168201915b5050505050905090565b6008602052806000526040600020600091509050806000015490806001018054610b7e90614457565b80601f0160208091040260200160405190810160405280929190818152602001828054610baa90614457565b8015610bf75780601f10610bcc57610100808354040283529160200191610bf7565b820191906000526020600020905b815481529060010190602001808311610bda57829003601f168201915b505050505090806002018054610c0c90614457565b80601f0160208091040260200160405190810160405280929190818152602001828054610c3890614457565b8015610c855780601f10610c5a57610100808354040283529160200191610c85565b820191906000526020600020905b815481529060010190602001808311610c6857829003601f168201915b5050505050908060030154908060040154908060050154905086565b610cb3610cac6121f8565b83836125fe565b5050565b6009806000018054610cc890614457565b80601f0160208091040260200160405190810160405280929190818152602001828054610cf490614457565b8015610d415780601f10610d1657610100808354040283529160200191610d41565b820191906000526020600020905b815481529060010190602001808311610d2457829003601f168201915b505050505090806001018054610d5690614457565b80601f0160208091040260200160405190810160405280929190818152602001828054610d8290614457565b8015610dcf5780601f10610da457610100808354040283529160200191610dcf565b820191906000526020600020905b815481529060010190602001808311610db257829003601f168201915b5050505050908060020154908060030154908060040154905085565b610dfc610df66121f8565b836122b9565b610e3b576040517f08c379a0000000000000000000000000000000000000000000000000000000008152600401610e32906140bb565b60405180910390fd5b610e478484848461276b565b50505050565b60606007805480602002602001604051908101604052809291908181526020016000905b82821015610fef57838290600052602060002090600602016040518060c001604052908160008201548152602001600182018054610eae90614457565b80601f0160208091040260200160405190810160405280929190818152602001828054610eda90614457565b8015610f275780601f10610efc57610100808354040283529160200191610f27565b820191906000526020600020905b815481529060010190602001808311610f0a57829003601f168201915b50505050508152602001600282018054610f4090614457565b80601f0160208091040260200160405190810160405280929190818152602001828054610f6c90614457565b8015610fb95780601f10610f8e57610100808354040283529160200191610fb9565b820191906000526020600020905b815481529060010190602001808311610f9c57829003601f168201915b50505050508152602001600382015481526020016004820154815260200160058201548152505081526020019060010190610e71565b50505050905090565b60606000600860008481526020019081526020016000206040518060c00160405290816000820154815260200160018201805461103490614457565b80601f016020809104026020016040519081016040528092919081815260200182805461106090614457565b80156110ad5780601f10611082576101008083540402835291602001916110ad565b820191906000526020600020905b81548152906001019060200180831161109057829003601f168201915b505050505081526020016002820180546110c690614457565b80601f01602080910402602001604051908101604052809291908181526020018280546110f290614457565b801561113f5780601f106111145761010080835404028352916020019161113f565b820191906000526020600020905b81548152906001019060200180831161112257829003601f168201915b5050505050815260200160038201548152602001600482015481526020016005820154815250509050600061117782606001516127c7565b9050600061118883608001516127c7565b905060006111998460a001516127c7565b905060006111df85602001516111ae896127c7565b87604001518787876040516020016111cb96959493929190613bbb565b604051602081830303815290604052612974565b90506000816040516020016111f49190613c60565b6040516020818303038152906040529050809650505050505050919050565b61121b61318c565b6000600e60003373ffffffffffffffffffffffffffffffffffffffff1673ffffffffffffffffffffffffffffffffffffffff16815260200190815260200160002054905060008111156113da57600860008281526020019081526020016000206040518060c0016040529081600082015481526020016001820180546112a090614457565b80601f01602080910402602001604051908101604052809291908181526020018280546112cc90614457565b80156113195780601f106112ee57610100808354040283529160200191611319565b820191906000526020600020905b8154815290600101906020018083116112fc57829003601f168201915b5050505050815260200160028201805461133290614457565b80601f016020809104026020016040519081016040528092919081815260200182805461135e90614457565b80156113ab5780601f10611380576101008083540402835291602001916113ab565b820191906000526020600020905b81548152906001019060200180831161138e57829003601f168201915b5050505050815260200160038201548152602001600482015481526020016005820154815250509150506113e8565b6113e261318c565b80925050505b90565b6000600e60003373ffffffffffffffffffffffffffffffffffffffff1673ffffffffffffffffffffffffffffffffffffffff16815260200190815260200160002054905060006008600083815260200190815260200160002090506114fe6040518060600160405280603c8152602001614d4e603c913982600101805461147190614457565b80601f016020809104026020016040519081016040528092919081815260200182805461149d90614457565b80156114ea5780601f106114bf576101008083540402835291602001916114ea565b820191906000526020600020905b8154815290600101906020018083116114cd57829003601f168201915b505050505083600301548460050154612b32565b6115d66040518060400160405280601b81526020017f426f73732025732068617320257320485020616e6420257320414400000000008152506009600001805461154790614457565b80601f016020809104026020016040519081016040528092919081815260200182805461157390614457565b80156115c05780601f10611595576101008083540402835291602001916115c0565b820191906000526020600020905b8154815290600101906020018083116115a357829003601f168201915b5050505050600960020154600960040154612b32565b600081600301541161161d576040517f08c379a00000000000000000000000000000000000000000000000000000000081526004016116149061403b565b60405180910390fd5b600060096002015411611665576040517f08c379a000000000000000000000000000000000000000000000000000000000815260040161165c90613f3b565b60405180910390fd5b806005015460096002015410156116865760006009600201819055506116a5565b806005015460096002015461169b919061436d565b6009600201819055505b600960040154816003015410156116c557600081600301819055506116e3565b60096004015481600301546116da919061436d565b81600301819055505b600081600301541161172a576040517f08c379a00000000000000000000000000000000000000000000000000000000081526004016117219061403b565b60405180910390fd5b600060096002015411611772576040517f08c379a000000000000000000000000000000000000000000000000000000000815260040161176990613f3b565b60405180910390fd5b806005015460096002015410156117935760006009600201819055506117b2565b80600501546009600201546117a8919061436d565b6009600201819055505b600960040154816003015410156117d257600081600301819055506117f0565b60096004015481600301546117e7919061436d565b81600301819055505b600060644244611800919061428c565b61180a9190614503565b905061184b6040518060400160405280600681526020017f736565643a20000000000000000000000000000000000000000000000000000081525082612bd4565b6000826005015490506000600960040154905060058311611875576002826118739190614313565b505b61189c604051806060016040528060258152602001614c9360259139600960020154612bd4565b6118c2604051806060016040528060288152602001614cf8602891398560030154612bd4565b6118e9604051806060016040528060258152602001614c9360259139600960020154612bd4565b61190f604051806060016040528060288152602001614cf8602891398560030154612bd4565b7f32bd565ee3f2cb5ddd742bbecd6048d3e9abe90b3827a40c2b72d232e71e3c9d33600960020154866003015460405161194b93929190613ce9565b60405180910390a15050505050565b6000600560008473ffffffffffffffffffffffffffffffffffffffff1673ffffffffffffffffffffffffffffffffffffffff16815260200190815260200160002060008373ffffffffffffffffffffffffffffffffffffffff1673ffffffffffffffffffffffffffffffffffffffff16815260200190815260200160002060009054906101000a900460ff16905092915050565b6060600060016119fe6006612c70565b611a08919061436d565b67ffffffffffffffff811115611a47577f4e487b7100000000000000000000000000000000000000000000000000000000600052604160045260246000fd5b604051908082528060200260200182016040528015611a8057816020015b611a6d61318c565b815260200190600190039081611a655790505b5090506000600190505b611a946006612c70565b811015611c6e576000600860008381526020019081526020016000209050806040518060c001604052908160008201548152602001600182018054611ad890614457565b80601f0160208091040260200160405190810160405280929190818152602001828054611b0490614457565b8015611b515780601f10611b2657610100808354040283529160200191611b51565b820191906000526020600020905b815481529060010190602001808311611b3457829003601f168201915b50505050508152602001600282018054611b6a90614457565b80601f0160208091040260200160405190810160405280929190818152602001828054611b9690614457565b8015611be35780601f10611bb857610100808354040283529160200191611be3565b820191906000526020600020905b815481529060010190602001808311611bc657829003601f168201915b50505050508152602001600382015481526020016004820154815260200160058201548152505083600184611c18919061436d565b81518110611c4f577f4e487b7100000000000000000000000000000000000000000000000000000000600052603260045260246000fd5b6020026020010181905250508080611c66906144ba565b915050611a8a565b508091505090565b6000611c826006612c70565b9050611c8e3382612c7e565b6040518060c0016040528083815260200160078481548110611cd9577f4e487b7100000000000000000000000000000000000000000000000000000000600052603260045260246000fd5b90600052602060002090600602016001018054611cf590614457565b80601f0160208091040260200160405190810160405280929190818152602001828054611d2190614457565b8015611d6e5780601f10611d4357610100808354040283529160200191611d6e565b820191906000526020600020905b815481529060010190602001808311611d5157829003601f168201915b5050505050815260200160078481548110611db2577f4e487b7100000000000000000000000000000000000000000000000000000000600052603260045260246000fd5b90600052602060002090600602016002018054611dce90614457565b80601f0160208091040260200160405190810160405280929190818152602001828054611dfa90614457565b8015611e475780601f10611e1c57610100808354040283529160200191611e47565b820191906000526020600020905b815481529060010190602001808311611e2a57829003601f168201915b5050505050815260200160078481548110611e8b577f4e487b7100000000000000000000000000000000000000000000000000000000600052603260045260246000fd5b906000526020600020906006020160030154815260200160078481548110611edc577f4e487b7100000000000000000000000000000000000000000000000000000000600052603260045260246000fd5b906000526020600020906006020160040154815260200160078481548110611f2d577f4e487b7100000000000000000000000000000000000000000000000000000000600052603260045260246000fd5b90600052602060002090600602016005015481525060086000838152602001908152602001600020600082015181600001556020820151816001019080519060200190611f7b9291906131c2565b506040820151816002019080519060200190611f989291906131c2565b50606082015181600301556080820151816004015560a08201518160050155905050611fdd6040518060600160405280602e8152602001614d20602e91398284612c9c565b80600e60003373ffffffffffffffffffffffffffffffffffffffff1673ffffffffffffffffffffffffffffffffffffffff1681526020019081526020016000208190555061202b600661210c565b7f4bc303fd457a97b4691b9af582ce71868a3d258638c8d4f8c60988a0f0bfb8cd33828460405161205e93929190613ce9565b60405180910390a15050565b612106848484846040516024016120849493929190613d7f565b6040516020818303038152906040527f8d142cdd000000000000000000000000000000000000000000000000000000007bffffffffffffffffffffffffffffffffffffffffffffffffffffffff19166020820180517bffffffffffffffffffffffffffffffffffffffffffffffffffffffff8381831617835250505050612d3b565b50505050565b6001816000016000828254019250508190555050565b60007f01ffc9a7000000000000000000000000000000000000000000000000000000007bffffffffffffffffffffffffffffffffffffffffffffffffffffffff1916827bffffffffffffffffffffffffffffffffffffffffffffffffffffffff1916149050919050565b60008073ffffffffffffffffffffffffffffffffffffffff166002600084815260200190815260200160002060009054906101000a900473ffffffffffffffffffffffffffffffffffffffff1673ffffffffffffffffffffffffffffffffffffffff1614159050919050565b600033905090565b816004600083815260200190815260200160002060006101000a81548173ffffffffffffffffffffffffffffffffffffffff021916908373ffffffffffffffffffffffffffffffffffffffff160217905550808273ffffffffffffffffffffffffffffffffffffffff1661227383610941565b73ffffffffffffffffffffffffffffffffffffffff167f8c5be1e5ebec7d5bd14f71427d1e84f3dd0314c0f7b2291e5b200ac8c7c3b92560405160405180910390a45050565b60006122c48261218c565b612303576040517f08c379a00000000000000000000000000000000000000000000000000000000081526004016122fa90613fbb565b60405180910390fd5b600061230e83610941565b90508073ffffffffffffffffffffffffffffffffffffffff168473ffffffffffffffffffffffffffffffffffffffff16148061237d57508373ffffffffffffffffffffffffffffffffffffffff1661236584610724565b73ffffffffffffffffffffffffffffffffffffffff16145b8061238e575061238d818561195a565b5b91505092915050565b8273ffffffffffffffffffffffffffffffffffffffff166123b782610941565b73ffffffffffffffffffffffffffffffffffffffff161461240d576040517f08c379a000000000000000000000000000000000000000000000000000000000815260040161240490613f1b565b60405180910390fd5b600073ffffffffffffffffffffffffffffffffffffffff168273ffffffffffffffffffffffffffffffffffffffff16141561247d576040517f08c379a000000000000000000000000000000000000000000000000000000000815260040161247490613f7b565b60405180910390fd5b612488838383612d64565b612493600082612200565b6001600360008573ffffffffffffffffffffffffffffffffffffffff1673ffffffffffffffffffffffffffffffffffffffff16815260200190815260200160002060008282546124e3919061436d565b925050819055506001600360008473ffffffffffffffffffffffffffffffffffffffff1673ffffffffffffffffffffffffffffffffffffffff168152602001908152602001600020600082825461253a919061428c565b92505081905550816002600083815260200190815260200160002060006101000a81548173ffffffffffffffffffffffffffffffffffffffff021916908373ffffffffffffffffffffffffffffffffffffffff160217905550808273ffffffffffffffffffffffffffffffffffffffff168473ffffffffffffffffffffffffffffffffffffffff167fddf252ad1be2c89b69c2b068fc378daa952ba7f163c4a11628f55a4df523b3ef60405160405180910390a46125f9838383612d69565b505050565b8173ffffffffffffffffffffffffffffffffffffffff168373ffffffffffffffffffffffffffffffffffffffff16141561266d576040517f08c379a000000000000000000000000000000000000000000000000000000000815260040161266490613f9b565b60405180910390fd5b80600560008573ffffffffffffffffffffffffffffffffffffffff1673ffffffffffffffffffffffffffffffffffffffff16815260200190815260200160002060008473ffffffffffffffffffffffffffffffffffffffff1673ffffffffffffffffffffffffffffffffffffffff16815260200190815260200160002060006101000a81548160ff0219169083151502179055508173ffffffffffffffffffffffffffffffffffffffff168373ffffffffffffffffffffffffffffffffffffffff167f17307eab39ab6107e8899845ad3d59bd9653f200f220920489ca2b5937696c318360405161275e9190613d42565b60405180910390a3505050565b612776848484612397565b61278284848484612d6e565b6127c1576040517f08c379a00000000000000000000000000000000000000000000000000000000081526004016127b890613efb565b60405180910390fd5b50505050565b6060600082141561280f576040518060400160405280600181526020017f3000000000000000000000000000000000000000000000000000000000000000815250905061296f565b600082905060005b6000821461284157808061282a906144ba565b915050600a8261283a91906142e2565b9150612817565b60008167ffffffffffffffff811115612883577f4e487b7100000000000000000000000000000000000000000000000000000000600052604160045260246000fd5b6040519080825280601f01601f1916602001820160405280156128b55781602001600182028036833780820191505090505b5090505b60008514612968576001826128ce919061436d565b9150600a856128dd9190614503565b60306128e9919061428c565b60f81b818381518110612925577f4e487b7100000000000000000000000000000000000000000000000000000000600052603260045260246000fd5b60200101907effffffffffffffffffffffffffffffffffffffffffffffffffffffffffffff1916908160001a905350600a8561296191906142e2565b94506128b9565b8093505050505b919050565b6060600082519050600081141561299d5760405180602001604052806000815250915050612b2d565b600060036002836129ae919061428c565b6129b891906142e2565b60046129c49190614313565b905060006020826129d5919061428c565b67ffffffffffffffff811115612a14577f4e487b7100000000000000000000000000000000000000000000000000000000600052604160045260246000fd5b6040519080825280601f01601f191660200182016040528015612a465781602001600182028036833780820191505090505b5090506000604051806060016040528060408152602001614cb8604091399050600181016020830160005b86811015612aea5760038101905062ffffff818a015116603f8160121c168401518060081b905060ff603f83600c1c1686015116810190508060081b905060ff603f8360061c1686015116810190508060081b905060ff603f831686015116810190508060e01b90508084526004840193505050612a71565b506003860660018114612b045760028114612b1457612b1f565b613d3d60f01b6002830352612b1f565b603d60f81b60018303525b508484525050819450505050505b919050565b612bce84848484604051602401612b4c9493929190613dd9565b6040516020818303038152906040527fd5cf17d0000000000000000000000000000000000000000000000000000000007bffffffffffffffffffffffffffffffffffffffffffffffffffffffff19166020820180517bffffffffffffffffffffffffffffffffffffffffffffffffffffffff8381831617835250505050612d3b565b50505050565b612c6c8282604051602401612bea929190613e8d565b6040516020818303038152906040527f9710a9d0000000000000000000000000000000000000000000000000000000007bffffffffffffffffffffffffffffffffffffffffffffffffffffffff19166020820180517bffffffffffffffffffffffffffffffffffffffffffffffffffffffff8381831617835250505050612d3b565b5050565b600081600001549050919050565b612c98828260405180602001604052806000815250612f05565b5050565b612d36838383604051602401612cb493929190613ebd565b6040516020818303038152906040527f969cdd03000000000000000000000000000000000000000000000000000000007bffffffffffffffffffffffffffffffffffffffffffffffffffffffff19166020820180517bffffffffffffffffffffffffffffffffffffffffffffffffffffffff8381831617835250505050612d3b565b505050565b60008151905060006a636f6e736f6c652e6c6f679050602083016000808483855afa5050505050565b505050565b505050565b6000612d8f8473ffffffffffffffffffffffffffffffffffffffff16612f60565b15612ef8578373ffffffffffffffffffffffffffffffffffffffff1663150b7a02612db86121f8565b8786866040518563ffffffff1660e01b8152600401612dda9493929190613c9d565b602060405180830381600087803b158015612df457600080fd5b505af1925050508015612e2557506040513d601f19601f82011682018060405250810190612e229190613506565b60015b612ea8573d8060008114612e55576040519150601f19603f3d011682016040523d82523d6000602084013e612e5a565b606091505b50600081511415612ea0576040517f08c379a0000000000000000000000000000000000000000000000000000000008152600401612e9790613efb565b60405180910390fd5b805181602001fd5b63150b7a0260e01b7bffffffffffffffffffffffffffffffffffffffffffffffffffffffff1916817bffffffffffffffffffffffffffffffffffffffffffffffffffffffff191614915050612efd565b600190505b949350505050565b612f0f8383612f83565b612f1c6000848484612d6e565b612f5b576040517f08c379a0000000000000000000000000000000000000000000000000000000008152600401612f5290613efb565b60405180910390fd5b505050565b6000808273ffffffffffffffffffffffffffffffffffffffff163b119050919050565b600073ffffffffffffffffffffffffffffffffffffffff168273ffffffffffffffffffffffffffffffffffffffff161415612ff3576040517f08c379a0000000000000000000000000000000000000000000000000000000008152600401612fea9061405b565b60405180910390fd5b612ffc8161218c565b1561303c576040517f08c379a000000000000000000000000000000000000000000000000000000000815260040161303390613f5b565b60405180910390fd5b61304860008383612d64565b6001600360008473ffffffffffffffffffffffffffffffffffffffff1673ffffffffffffffffffffffffffffffffffffffff1681526020019081526020016000206000828254613098919061428c565b92505081905550816002600083815260200190815260200160002060006101000a81548173ffffffffffffffffffffffffffffffffffffffff021916908373ffffffffffffffffffffffffffffffffffffffff160217905550808273ffffffffffffffffffffffffffffffffffffffff16600073ffffffffffffffffffffffffffffffffffffffff167fddf252ad1be2c89b69c2b068fc378daa952ba7f163c4a11628f55a4df523b3ef60405160405180910390a461315960008383612d69565b5050565b6040518060a0016040528060608152602001606081526020016000815260200160008152602001600081525090565b6040518060c001604052806000815260200160608152602001606081526020016000815260200160008152602001600081525090565b8280546131ce90614457565b90600052602060002090601f0160209004810192826131f05760008555613237565b82601f1061320957805160ff1916838001178555613237565b82800160010185558215613237579182015b8281111561323657825182559160200191906001019061321b565b5b5090506132449190613248565b5090565b5b80821115613261576000816000905550600101613249565b5090565b6000613278613273846141ce565b6141a9565b90508281526020810184848401111561329057600080fd5b61329b848285614415565b509392505050565b6000813590506132b281614c36565b92915050565b6000813590506132c781614c4d565b92915050565b6000813590506132dc81614c64565b92915050565b6000815190506132f181614c64565b92915050565b600082601f83011261330857600080fd5b8135613318848260208601613265565b91505092915050565b60008135905061333081614c7b565b92915050565b60006020828403121561334857600080fd5b6000613356848285016132a3565b91505092915050565b6000806040838503121561337257600080fd5b6000613380858286016132a3565b9250506020613391858286016132a3565b9150509250929050565b6000806000606084860312156133b057600080fd5b60006133be868287016132a3565b93505060206133cf868287016132a3565b92505060406133e086828701613321565b9150509250925092565b6000806000806080858703121561340057600080fd5b600061340e878288016132a3565b945050602061341f878288016132a3565b935050604061343087828801613321565b925050606085013567ffffffffffffffff81111561344d57600080fd5b613459878288016132f7565b91505092959194509250565b6000806040838503121561347857600080fd5b6000613486858286016132a3565b9250506020613497858286016132b8565b9150509250929050565b600080604083850312156134b457600080fd5b60006134c2858286016132a3565b92505060206134d385828601613321565b9150509250929050565b6000602082840312156134ef57600080fd5b60006134fd848285016132cd565b91505092915050565b60006020828403121561351857600080fd5b6000613526848285016132e2565b91505092915050565b60006020828403121561354157600080fd5b600061354f84828501613321565b91505092915050565b60006135648383613a7d565b905092915050565b613575816143a1565b82525050565b60006135868261420f565b613590818561423d565b9350836020820285016135a2856141ff565b8060005b858110156135de57848403895281516135bf8582613558565b94506135ca83614230565b925060208a019950506001810190506135a6565b50829750879550505050505092915050565b6135f9816143b3565b82525050565b600061360a8261421a565b613614818561424e565b9350613624818560208601614424565b61362d816145f0565b840191505092915050565b600061364382614225565b61364d818561425f565b935061365d818560208601614424565b613666816145f0565b840191505092915050565b600061367c82614225565b6136868185614270565b9350613696818560208601614424565b61369f816145f0565b840191505092915050565b60006136b582614225565b6136bf8185614281565b93506136cf818560208601614424565b80840191505092915050565b60006136e8600b83614281565b91506136f382614601565b600b82019050919050565b600061370b603283614270565b91506137168261462a565b604082019050919050565b600061372e602583614270565b915061373982614679565b604082019050919050565b6000613751602883614270565b915061375c826146c8565b604082019050919050565b6000613774601c83614270565b915061377f82614717565b602082019050919050565b6000613797600e83614281565b91506137a282614740565b600e82019050919050565b60006137ba602483614270565b91506137c582614769565b604082019050919050565b60006137dd601983614270565b91506137e8826147b8565b602082019050919050565b6000613800602c83614270565b915061380b826147e1565b604082019050919050565b6000613823603883614270565b915061382e82614830565b604082019050919050565b6000613846602a83614270565b91506138518261487f565b604082019050919050565b6000613869602983614270565b9150613874826148ce565b604082019050919050565b600061388c602d83614270565b91506138978261491d565b604082019050919050565b60006138af600483614281565b91506138ba8261496c565b600482019050919050565b60006138d2602083614270565b91506138dd82614995565b602082019050919050565b60006138f5602c83614270565b9150613900826149be565b604082019050919050565b6000613918600a83614281565b915061392382614a0d565b600a82019050919050565b600061393b602183614270565b915061394682614a36565b604082019050919050565b600061395e601d83614281565b915061396982614a85565b601d82019050919050565b6000613981606983614281565b915061398c82614aae565b606982019050919050565b60006139a4603183614270565b91506139af82614b49565b604082019050919050565b60006139c7603d83614281565b91506139d282614b98565b603d82019050919050565b60006139ea602d83614281565b91506139f582614be7565b602d82019050919050565b600060a0830160008301518482036000860152613a1d8282613638565b91505060208301518482036020860152613a378282613638565b9150506040830151613a4c6040860182613b9d565b506060830151613a5f6060860182613b9d565b506080830151613a726080860182613b9d565b508091505092915050565b600060c083016000830151613a956000860182613b9d565b5060208301518482036020860152613aad8282613638565b91505060408301518482036040860152613ac78282613638565b9150506060830151613adc6060860182613b9d565b506080830151613aef6080860182613b9d565b5060a0830151613b0260a0860182613b9d565b508091505092915050565b600060c083016000830151613b256000860182613b9d565b5060208301518482036020860152613b3d8282613638565b91505060408301518482036040860152613b578282613638565b9150506060830151613b6c6060860182613b9d565b506080830151613b7f6080860182613b9d565b5060a0830151613b9260a0860182613b9d565b508091505092915050565b613ba68161440b565b82525050565b613bb58161440b565b82525050565b6000613bc68261390b565b9150613bd282896136aa565b9150613bdd826136db565b9150613be982886136aa565b9150613bf482613974565b9150613c0082876136aa565b9150613c0b826139ba565b9150613c1782866136aa565b9150613c228261378a565b9150613c2e82856136aa565b9150613c39826139dd565b9150613c4582846136aa565b9150613c50826138a2565b9150819050979650505050505050565b6000613c6b82613951565b9150613c7782846136aa565b915081905092915050565b6000602082019050613c97600083018461356c565b92915050565b6000608082019050613cb2600083018761356c565b613cbf602083018661356c565b613ccc6040830185613bac565b8181036060830152613cde81846135ff565b905095945050505050565b6000606082019050613cfe600083018661356c565b613d0b6020830185613bac565b613d186040830184613bac565b949350505050565b60006020820190508181036000830152613d3a818461357b565b905092915050565b6000602082019050613d5760008301846135f0565b92915050565b60006020820190508181036000830152613d778184613671565b905092915050565b60006080820190508181036000830152613d998187613671565b90508181036020830152613dad8186613671565b9050613dbc6040830185613bac565b8181036060830152613dce8184613671565b905095945050505050565b60006080820190508181036000830152613df38187613671565b90508181036020830152613e078186613671565b9050613e166040830185613bac565b613e236060830184613bac565b95945050505050565b600060a0820190508181036000830152613e468188613671565b90508181036020830152613e5a8187613671565b9050613e696040830186613bac565b613e766060830185613bac565b613e836080830184613bac565b9695505050505050565b60006040820190508181036000830152613ea78185613671565b9050613eb66020830184613bac565b9392505050565b60006060820190508181036000830152613ed78186613671565b9050613ee66020830185613bac565b613ef36040830184613bac565b949350505050565b60006020820190508181036000830152613f14816136fe565b9050919050565b60006020820190508181036000830152613f3481613721565b9050919050565b60006020820190508181036000830152613f5481613744565b9050919050565b60006020820190508181036000830152613f7481613767565b9050919050565b60006020820190508181036000830152613f94816137ad565b9050919050565b60006020820190508181036000830152613fb4816137d0565b9050919050565b60006020820190508181036000830152613fd4816137f3565b9050919050565b60006020820190508181036000830152613ff481613816565b9050919050565b6000602082019050818103600083015261401481613839565b9050919050565b600060208201905081810360008301526140348161385c565b9050919050565b600060208201905081810360008301526140548161387f565b9050919050565b60006020820190508181036000830152614074816138c5565b9050919050565b60006020820190508181036000830152614094816138e8565b9050919050565b600060208201905081810360008301526140b48161392e565b9050919050565b600060208201905081810360008301526140d481613997565b9050919050565b600060208201905081810360008301526140f58184613a00565b905092915050565b600060208201905081810360008301526141178184613b0d565b905092915050565b60006020820190506141346000830184613bac565b92915050565b600060c08201905061414f6000830189613bac565b81810360208301526141618188613671565b905081810360408301526141758187613671565b90506141846060830186613bac565b6141916080830185613bac565b61419e60a0830184613bac565b979650505050505050565b60006141b36141c4565b90506141bf8282614489565b919050565b6000604051905090565b600067ffffffffffffffff8211156141e9576141e86145c1565b5b6141f2826145f0565b9050602081019050919050565b6000819050602082019050919050565b600081519050919050565b600081519050919050565b600081519050919050565b6000602082019050919050565b600082825260208201905092915050565b600082825260208201905092915050565b600082825260208201905092915050565b600082825260208201905092915050565b600081905092915050565b60006142978261440b565b91506142a28361440b565b9250827fffffffffffffffffffffffffffffffffffffffffffffffffffffffffffffffff038211156142d7576142d6614534565b5b828201905092915050565b60006142ed8261440b565b91506142f88361440b565b92508261430857614307614563565b5b828204905092915050565b600061431e8261440b565b91506143298361440b565b9250817fffffffffffffffffffffffffffffffffffffffffffffffffffffffffffffffff048311821515161561436257614361614534565b5b828202905092915050565b60006143788261440b565b91506143838361440b565b92508282101561439657614395614534565b5b828203905092915050565b60006143ac826143eb565b9050919050565b60008115159050919050565b60007fffffffff0000000000000000000000000000000000000000000000000000000082169050919050565b600073ffffffffffffffffffffffffffffffffffffffff82169050919050565b6000819050919050565b82818337600083830152505050565b60005b83811015614442578082015181840152602081019050614427565b83811115614451576000848401525b50505050565b6000600282049050600182168061446f57607f821691505b6020821081141561448357614482614592565b5b50919050565b614492826145f0565b810181811067ffffffffffffffff821117156144b1576144b06145c1565b5b80604052505050565b60006144c58261440b565b91507fffffffffffffffffffffffffffffffffffffffffffffffffffffffffffffffff8214156144f8576144f7614534565b5b600182019050919050565b600061450e8261440b565b91506145198361440b565b92508261452957614528614563565b5b828206905092915050565b7f4e487b7100000000000000000000000000000000000000000000000000000000600052601160045260246000fd5b7f4e487b7100000000000000000000000000000000000000000000000000000000600052601260045260246000fd5b7f4e487b7100000000000000000000000000000000000000000000000000000000600052602260045260246000fd5b7f4e487b7100000000000000000000000000000000000000000000000000000000600052604160045260246000fd5b6000601f19601f8301169050919050565b7f202d2d204e465420233a20000000000000000000000000000000000000000000600082015250565b7f4552433732313a207472616e7366657220746f206e6f6e20455243373231526560008201527f63656976657220696d706c656d656e7465720000000000000000000000000000602082015250565b7f4552433732313a207472616e736665722066726f6d20696e636f72726563742060008201527f6f776e6572000000000000000000000000000000000000000000000000000000602082015250565b7f4572726f723a20626f7373206d757374206861766520485020746f206174746160008201527f636b20626f73732e000000000000000000000000000000000000000000000000602082015250565b7f4552433732313a20746f6b656e20616c7265616479206d696e74656400000000600082015250565b7f2c20226d61785f76616c7565223a000000000000000000000000000000000000600082015250565b7f4552433732313a207472616e7366657220746f20746865207a65726f2061646460008201527f7265737300000000000000000000000000000000000000000000000000000000602082015250565b7f4552433732313a20617070726f766520746f2063616c6c657200000000000000600082015250565b7f4552433732313a206f70657261746f7220717565727920666f72206e6f6e657860008201527f697374656e7420746f6b656e0000000000000000000000000000000000000000602082015250565b7f4552433732313a20617070726f76652063616c6c6572206973206e6f74206f7760008201527f6e6572206e6f7220617070726f76656420666f7220616c6c0000000000000000602082015250565b7f4552433732313a2062616c616e636520717565727920666f7220746865207a6560008201527f726f206164647265737300000000000000000000000000000000000000000000602082015250565b7f4552433732313a206f776e657220717565727920666f72206e6f6e657869737460008201527f656e7420746f6b656e0000000000000000000000000000000000000000000000602082015250565b7f4572726f723a20636861726163746572206d757374206861766520485020746f60008201527f2061747461636b20626f73732e00000000000000000000000000000000000000602082015250565b7f7d205d7d00000000000000000000000000000000000000000000000000000000600082015250565b7f4552433732313a206d696e7420746f20746865207a65726f2061646472657373600082015250565b7f4552433732313a20617070726f76656420717565727920666f72206e6f6e657860008201527f697374656e7420746f6b656e0000000000000000000000000000000000000000602082015250565b7f7b226e616d65223a202200000000000000000000000000000000000000000000600082015250565b7f4552433732313a20617070726f76616c20746f2063757272656e74206f776e6560008201527f7200000000000000000000000000000000000000000000000000000000000000602082015250565b7f646174613a6170706c69636174696f6e2f6a736f6e3b6261736536342c000000600082015250565b7f222c20226465736372697074696f6e223a20225468697320697320616e204e4660008201527f542074686174206c6574732070656f706c6520706c617920696e20746865206760208201527f616d65204d657461766572736520536c6179657221222c2022696d616765223a60408201527f2022697066733a2f2f0000000000000000000000000000000000000000000000606082015250565b7f4552433732313a207472616e736665722063616c6c6572206973206e6f74206f60008201527f776e6572206e6f7220617070726f766564000000000000000000000000000000602082015250565b7f222c202261747472696275746573223a205b207b202274726169745f7479706560008201527f223a20224865616c746820506f696e7473222c202276616c7565223a20000000602082015250565b7f7d2c207b202274726169745f74797065223a202241747461636b2044616d616760008201527f65222c202276616c7565223a2000000000000000000000000000000000000000602082015250565b614c3f816143a1565b8114614c4a57600080fd5b50565b614c56816143b3565b8114614c6157600080fd5b50565b614c6d816143bf565b8114614c7857600080fd5b50565b614c848161440b565b8114614c8f57600080fd5b5056fe506c617965722061747461636b656420626f73732e204e657720626f73732068703a2025734142434445464748494a4b4c4d4e4f505152535455565758595a6162636465666768696a6b6c6d6e6f707172737475767778797a303132333435363738392b2f426f73732061747461636b656420706c617965722e204e657720706c617965722068703a2025730a4d696e746564204e465420772f20746f6b656e496420257320616e6420636861726163746572496e6465782025730a506c6179657220772f206368617261637465722025732061626f757420746f2061747461636b2e2048617320257320485020616e64202573204144a2646970667358221220967a6561c62df58d065890ebc9b13d89070d8c28cb387e39128b9f095a6b8ab364736f6c63430008010033446f6e6520696e697469616c697a696e6720257320772f2048502025732c20696d67202573",
  "linkReferences": {},
  "deployedLinkReferences": {}
}